:020000040800F2
:10000000C0060020290200088F0F00088D0E00088E
:100010008D0F00081F0400080F12000800000000E8
:100020000000000000000000000000003110000887
:100030002104000800000000910F000833100008A0
:10004000430200084302000843020008430200087C
:10005000430200084302000843020008430200086C
:10006000430200084302000843020008430200085C
:10007000430200084302000843020008430200084C
:10008000430200084302000843020008430200083C
:10009000430200084302000843020008430200082C
:1000A000430200084302000843020008430200081C
:1000B000430200084302000843020008430200080C
:1000C00043020008430200084302000843020008FC
:1000D00043020008430200084302000843020008EC
:1000E00043020008430200084302000843020008DC
:1000F00043020008430200084302000843020008CC
:1001000043020008430200084302000843020008BB
:1001100043020008430200084302000843020008AB
:10012000430200084302000843020008430200089B
:10013000430200084302000843020008430200088B
:10014000430200084302000843020008430200087B
:10015000430200084302000843020008430200086B
:10016000430200084302000843020008430200085B
:100170004302000843020008430200080000000098
:10018000430200084302000800F002F800F03CF8C7
:100190000AA090E8000C82448344AAF10107DA45E2
:1001A00001D100F031F8AFF2090EBAE80F0013F0F8
:1001B000010F18BFFB1A43F0010318473811000064
:1001C00058110000103A24BF78C878C1FAD85207F5
:1001D00024BF30C830C144BF04680C6070470000C1
:1001E0000023002400250026103A28BF78C1FBD840
:1001F000520728BF30C148BF0B6070471FB501F0E0
:100200006BF81FBD10B510BD00F0CFF81146FFF719
:10021000F5FF01F013F800F0EDF803B4FFF7F2FF7B
:1002200003BC00F0F5F80000094880470948004782
:10023000FEE7FEE7FEE7FEE7FEE7FEE7FEE7FEE796
:10024000FEE7FEE704480549054A064B70470000F3
:10025000CD10000889010008C0000020C006002061
:10026000C0020020C002002053EA020C00F06980A6
:100270002DE9F04B4FF00006002B1FBFB3FA83F5BA
:1002800003FA05F424FA05F65E4012BF1643B2FAEB
:1002900082F502FA05F4C5F120051EBF22FA05FC1D
:1002A00044EA0C04203556EA044C4FEA144418BFC3
:1002B000641C4FF000084FF00009904271EB030CF2
:1002C00039D3002919BFB1FA81F701FA07F6B0FA5C
:1002D00080F700FA07F6C7F120071EBF20FA07FCD7
:1002E00046EA0C062037B6FBF4FCA7EB0507103FE7
:1002F00007F01F0BCBF120060CFA0BFB2CFA06F6CD
:1003000044BFB3460026202FA4BF5E464FF0000B2B
:100310005BEA060C08BF4FF0010B19EB0B09ABFBB6
:10032000027C48EB0608C01B06FB02CC0BFB03CC8F
:1003300071EB0C01C1E70B46024641464846BDE859
:10034000F08B13B54FF000004FF00001AFF30080C9
:10035000BDE81C4070474FF0000200B513469446BC
:100360009646203922BFA0E80C50A0E80C50B1F10D
:100370002001BFF4F7AF090728BFA0E80C5048BF21
:100380000CC05DF804EB890028BF40F8042B08BFBF
:10039000704748BF20F8022B11F0804F18BF00F8BB
:1003A000012B7047704770477047754600F02CF876
:1003B000AE4605006946534620F00700854618B052
:1003C00020B5FFF73FFFBDE820404FF000064FF09B
:1003D00000074FF000084FF0000B21F00701AC467A
:1003E000ACE8C009ACE8C009ACE8C009ACE8C00999
:1003F0008D46704710B50446AFF300802046BDE837
:100400001040FFF70ABF0000004870475C00002062
:1004100001491820ABBEFEE7260002007047FEE748
:10042000704772B6FEE7000070B5044600F010F9A0
:100430000546601C02D004480078044400F008F926
:10044000401BA042FAD370BD040000202DE9F84FF4
:10045000DFF8BCA1002201250AF1040B03264FF0AE
:100460000F090BF1040E00BF0B6805FA02F42340DC
:10047000A34270D10F7907F00307012F01D0022F9B
:1004800016D187684FEA420806FA08FC27EA0C07EB
:10049000D1F80CC00CFA08FC4CEA070CC0F808C0F4
:1004A0004768A7430C79C4F3001494403C4344606C
:1004B0000C79E443A4070AD0C4684FEA420C06FA58
:1004C0000CF7BC438F6807FA0CF72743C7600C7919
:1004D00004F00304022C12D1D40800EB840CDCF8E5
:1004E00020405707FF0E09FA07F824EA0804D1F85C
:1004F000108008FA07F848EA0408CCF8208004685D
:100500004FEA420C06FA0CF7BC430F7907F00307D9
:1005100007FA0CF7274307604C6814F4403F70D08B
:100520003C4C276847F480472760246822F0030783
:1005300004F480440094384C07EB040CDCF80848C1
:1005400097074FEA177809FA08F7BC43334FB842C8
:1005500002D1002724E054E0314FB84201D10127F5
:100560001EE0304FB84201D1022719E02E4FB842A9
:1005700001D1032714E02D4FB84201D104270FE029
:100580002B4FB84201D105270AE02A4FB84201D1CA
:10059000062705E0284FB84201D1072700E00827C9
:1005A00007FA08F72743CCF80878DAF800405746EE
:1005B000D1F804C09C435FEACC3C00D51C433C60AE
:1005C000DBF800405F46D1F804C09C435FEA8C3CF6
:1005D00000D51C433C60DEF800407746D1F804C0EB
:1005E0009C435FEACC2C00D51C433C60084F0C3781
:1005F0003C68D1F804C09C435FEA8C2C00D51C43B6
:100600003C60521C102AFFF42FAFBDE8F88F0000A9
:10061000003C0140443802400030014000000240EC
:100620000004024000080240000C0240001002409A
:100630000014024000180240001C024000690840FB
:1006400000D0012070470AB1816170470904FBE7BF
:10065000014880687047000004000020024881685B
:100660000278114481607047040000200B4810B5E7
:10067000016841F400710160016841F4806101602A
:10068000016841F480710160032000F061F80F20DF
:1006900000F006F800F024F8002010BD003C0240F5
:1006A00070B50D4D04464FF47A712878B1FBF0F027
:1006B0000A490968B1FBF0F000F0DCFA48B9102CE7
:1006C00007D200222146501E00F022F800206C6064
:1006D00070BD012070BD000004000020100000204B
:1006E0000A4808B5016841F480410160006800F4DF
:1006F000804000900548001F016841F08051016072
:10070000006800F08050009008BD000044380240AE
:10071000F0B40E4B1B680C46C3F30223C3F107056C
:10072000042D00D90425191D072901D2002300E05A
:10073000DB1E012606FA05F1491E214099409E4024
:10074000761E16403143F0BC00F062BD0CED00E0B7
:10075000064900F0070208684FF6FF03184040EA18
:100760000220034A10430860704700000CED00E0CF
:100770000000FA052DE9F0470E46050065D0DFF8C8
:100780001481D8F80000F7B200F00700B04207D299
:1007900088F80070D8F8000000F00700B04254D18B
:1007A00028683D4C810712D5400703D5206840F4E6
:1007B000E05020602878000703D5206840F46040AE
:1007C00020602068A96820F0F000084320602878A5
:1007D000C0072DD0304968680839012812D0022896
:1007E00013D0032811D00968890700292DDA216860
:1007F00021F0030101432160FFF72AFF814641F206
:10080000883A0EE009688903EFE709688901ECE797
:10081000FFF71EFFA0EB0901514502D90320BDE8F7
:10082000F0872068696800F00C00B0EB810FEFD111
:10083000D8F80010404601F00701B14207D907700F
:10084000006800F00700B04201D00120E7E72878F7
:10085000400705D52068E96820F4E050084320608F
:100860002878000706D52068296920F4604040EA0E
:10087000C100206000F018F82168084AC1F3031194
:10088000515CC8400649086006480068FFF708FF49
:100890000020C4E7003C024008380240E212000891
:1008A0001000002008000020154810B5006810F066
:1008B0000C02144813D04110042A0FD0082A0ED17C
:1008C0000F4C241F2268236802F03F025B0207D509
:1008D0002068C0F38810A0FB010106E0084610BDA7
:1008E0002168C1F38811A1FB00010023FFF7BCFCC4
:1008F0002168C1F30141491C4900B0FBF1F010BD72
:10090000083802400024F4002DE9F84F04006ED0AE
:100910002078DFF84C93C007A9F104054AD009F10B
:1009200004000168C1F38101012908D00068C0F307
:10093000810002280AD1D9F80000400206D52868B3
:10094000800337D560680028E1D033E06068B0F5F7
:10095000803F10D0B0F5A02F286810D020F4803050
:100960002860286820F4802028606068A8B1FFF71C
:100970006FFE06460DE0286840F48030F4E740F44E
:1009800080202860F7E700BFFFF762FE801B642825
:1009900073D828688003F7D50CE0FFF759FE0646A8
:1009A00005E000BFFFF754FE801B6428F0D82868DC
:1009B0008003F7D42078DFF8AC8280074FF0000A7C
:1009C0003ED5A748001D016811F00C0F08D0006843
:1009D000C0F3810002280BD1D9F80000400207D4EF
:1009E0002868800716D5E068012800D112E033E1BD
:1009F000E068B8B10120C8F80000FFF729FE0646FC
:100A000005E000BFFFF724FE801B0228C0D828683D
:100A10008007F7D52868216920F0F80040EAC10076
:100A200028600DE0C8F800A0FFF712FE064604E0BB
:100A3000FFF70EFE801B02281FD828688007F7D416
:100A40002078000722D5864F87486169703771B1D9
:100A500001210160FFF7FCFD064604E0FFF7F8FD09
:100A6000801B022809D838688007F7D50EE0C0F847
:100A700000A0FFF7EDFD064605E082E0FFF7E8FD88
:100A8000801B02287DD838688007F7D4207840077B
:100A900068D5DFF8CCB100270BF13C0BDBF8000088
:100AA000C0000BD4DBF8001041F08051CBF80010EF
:100AB000DBF80000012700F0805000906B4E30689A
:100AC000C00510D4306840F480703060FFF7C0FD7E
:100AD000009005E0FFF7BCFD0099401A022850D8AD
:100AE0003068C005F6D55E4EA0686C3601280FD080
:100AF0000528306810D020F001003060306820F008
:100B000004003060A068B8B1FFF7A2FD00900FE0CC
:100B1000306840F00100F4E740F004003060F7E78F
:100B2000FFF796FD0099411A41F28830814266D85C
:100B300030688007F4D50EE0FFF78AFD009007E0EB
:100B4000FFF786FD0099411A41F28830814256D85C
:100B500030688007F4D42FB1DBF8001021F0805109
:100B6000CBF80010A069C8B33D49091D0968C1F35D
:100B7000810102294AD00228504607D0C8F86000F7
:100B800000E03CE0FFF764FD04463BE04746C8F860
:100B90006000FFF75DFD064605E000BFFFF758FD6A
:100BA000801B02282BD828688001F7D4D4E90701DC
:100BB0000843A16A2E4A490802EB0141626A41EAF0
:100BC0008211084394F82C1040EA0161C9F8001022
:100BD00001203866FFF73CFD044606E03EE000BF1A
:100BE000FFF736FD001B022809D828688001F7D5D9
:100BF00034E000BFFFF72CFD001B022802D90320C0
:100C0000BDE8F88F28688001F4D427E00128F7D0E8
:100C1000D9F80000E26900F4800191421CD1226AF7
:100C200000F03F01914217D147F6C071626A01405E
:100C3000B1EB821F10D1A26A4FF0FF3300F44031B4
:100C400003EB5202B1EB024F06D194F82C1000F0E6
:100C50007060B0EB016F01D00120D1E70020CFE739
:100C60000438024000004742800E474200700040B6
:100C70000000FFFF10B5401EB0F1807F01D30120BE
:100C800010BD4FF0E02460610F21601700F0C0FA42
:100C90000020A06107202061002010BD70B590F8F1
:100CA0003C20012A32D0012480F83C40022280F806
:100CB0003D2003685A689D6822F070060A68324336
:100CC0005A60134B02689A4214D0B2F1804F11D08F
:100CD000104B9A420ED0104B9A420BD00F4B9A42B7
:100CE00008D00F4B9A4205D00E4B9A4202D00E4BC1
:100CF0009A4204D1496825F080031943916080F835
:100D00003D40002180F83C10084670BD022070BDB7
:100D1000000001400004004000080040000C0040BA
:100D200000040140004001400018004010B50400DC
:100D300003D094F83D0010B107E0012010BD002061
:100D400084F83C00204600F01FF8022084F83D00A3
:100D5000211D206800F0C2F9012084F8460084F8C3
:100D60003E0084F83F0084F8400084F8410084F895
:100D7000420084F8430084F8440084F8450084F875
:100D80003D00002010BD000008B5006806498842FB
:100D900008D10648016841F002010160006800F0D6
:100DA0000200009008BD00000004004040380240EE
:100DB00070B5044690F83C000025012817D00126A4
:100DC00084F83C60022084F83D002068826822F0AC
:100DD000770222F47F4282600868502838D00DDC08
:100DE00020284FD005DC90B3102811D14AE0022012
:100DF00070BD302846D040280AD13BE060282FD073
:100E000070280DD0B0F5805F03D0B0F5005F12D030
:100E1000012584F83D60002084F83C00284670BD20
:100E2000CB68D1E90121206800F0BCF92068816815
:100E300041F0770109E0CB68D1E90121206800F099
:100E4000B1F92068816841F480418160E1E719E0EF
:100E5000CA684968206800F0B7F95021206806E0A8
:100E6000CA684968206800F0C0F96021206800F075
:100E7000A3F9CEE7CA684968206800F0A5F94021C7
:100E80002068F4E7226801461046F0E7FEE700001C
:100E900070B586B014216846FFF75DFA1E4800253C
:100EA000016841F080010160016801F08001059155
:100EB000016841F010010160016801F01001059125
:100EC000016841F008010160016801F00801059125
:100ED000016841F0010101600068104E00F001005E
:100EE0004FF480640590002221463046FFF7ABFBAB
:100EF00001210320CDE90210CDE9004169463046C9
:100F0000FFF7A4FA02200094CDE901506946044895
:100F1000FFF79CFA06B070BD303802400010024066
:100F2000000C024010B586B00024174800940194CC
:100F30000294039404941349059401600721C0E9C5
:100F400001144FF6FF71C0E903148461FFF7EEFE50
:100F500008B1FFF766FA4FF48050009069460A48DE
:100F6000FFF726FF08B1FFF75CFA049404A90648CE
:100F70000594FFF793FE002801D0FFF752FA06B060
:100F800010BD00000004004014000020FEE7FEE752
:100F90007047000070B50122094D94022146284691
:100FA000FFF751FB062000F043F9002221462846B6
:100FB000FFF749FBBDE87040152000F039B900008B
:100FC0000010024070B50122094D940221462846C6
:100FD000FFF739FB192000F02BF9002221462846A3
:100FE000FFF731FBBDE87040032000F021B900009D
:100FF0000010024070B514460D4600F008F828466F
:1010000000F005F82046BDE87040AFF3008070B5F1
:1010100004460025200602D5FFF7D4FF01E0FFF7C4
:10102000B9FF60066D1C040EEDB2082DF2D370BD41
:101030007047FFF713BB000030B593B0302168460E
:10104000FFF789F914210CA8FFF785F91D48002541
:10105000016841F080510160006800F080501190FB
:101060001948016841F4804101600068022400F4DD
:101070008040119001200090000401908001CDE992
:10108000064008AA0420A82182E813000B906846B5
:10109000FFF73AFC08B172B6FEE70CA90F2081E811
:1010A00031004FF4A0500F904FF480501090052164
:1010B0000CA8FFF75FFB002801D072B6FEE713B063
:1010C00030BD000040380240007000400248016816
:1010D00041F470010160704788ED00E0F0B50268EE
:1010E000254C264D264E274F274B4FF0804CA042D3
:1010F00009D0604507D0A84205D0B04203D0B8421D
:1011000001D0984204D122F0700E4A6842EA0E02E1
:10111000A0421BD0604519D0A84217D0B04215D0CC
:10112000B84213D0984211D0184DA8420ED0184D95
:10113000A8420BD0174DA84208D0174DA84205D0A1
:10114000164DA84202D0164DA84203D122F4407594
:10115000CA682A434D6922F080022A4302608A68E5
:10116000C2620A688262A04201D0984201D1096934
:10117000016301214161F0BD000001400004004015
:1011800000080040000C0040000401400040014005
:10119000004401400048014000180040001C00408D
:1011A0000020004010B5846842EA032224F47F4402
:1011B0000A432243826010BD826822F070020A4313
:1011C00042F007018160704710B5036A046A24F099
:1011D00001040462846924F0F00444EA021423F058
:1011E0000A020A438461026210BD10B5036A23F04B
:1011F000100303628369046A23F4704343EA0232F2
:1012000024F0A00343EA01118261016210BDFEE7F0
:101210000907090E002804DB00F1E02080F8001423
:10122000704700F00F0000F1E02080F8141D7047B7
:1012300001E0401E80B20028FBD17047FFF716FA8C
:10124000FFF7FAFEFFF724FEFFF76CFE204C0125A6
:10125000204F2570AE0200224F211046FFF7CAFE34
:101260002078401C40B220700828F4DD4FF00008C0
:1012700084F8018031463846FFF7E0F90028F7D1BD
:101280003220FFF7D1F831463846FFF7D7F9012869
:10129000EED1A0782570C0070BD0002211464F2058
:1012A000FFF7A8FE2078401C40B220700828F4DD2B
:1012B0000AE000224F211046FFF79CFE2078401CD8
:1012C00040B220700828F4DDA078401CA070CFE761
:1012D00000000020000C02404FF04070E1EE100AC8
:1012E0007047000000000000000001020304060730
:1012F000080900001413000800000020140000007A
:10130000C40100082813000814000020AC060000E7
:10131000E0010008010001000100000010000000D1
:08132000000000000024F400AD
:040000050800018965
:00000001FF
